{
  "contractName": "ChainlinkExample",
  "abi": [
    {
      "inputs": [
        {
          "internalType": "address",
          "name": "_address",
          "type": "address"
        }
      ],
      "stateMutability": "nonpayable",
      "type": "constructor"
    },
    {
      "anonymous": false,
      "inputs": [
        {
          "indexed": true,
          "internalType": "bytes32",
          "name": "id",
          "type": "bytes32"
        }
      ],
      "name": "ChainlinkCancelled",
      "type": "event"
    },
    {
      "anonymous": false,
      "inputs": [
        {
          "indexed": true,
          "internalType": "bytes32",
          "name": "id",
          "type": "bytes32"
        }
      ],
      "name": "ChainlinkFulfilled",
      "type": "event"
    },
    {
      "anonymous": false,
      "inputs": [
        {
          "indexed": true,
          "internalType": "bytes32",
          "name": "id",
          "type": "bytes32"
        }
      ],
      "name": "ChainlinkRequested",
      "type": "event"
    },
    {
      "inputs": [],
      "name": "currentPrice",
      "outputs": [
        {
          "internalType": "uint256",
          "name": "",
          "type": "uint256"
        }
      ],
      "stateMutability": "view",
      "type": "function",
      "constant": true
    },
    {
      "inputs": [],
      "name": "owner",
      "outputs": [
        {
          "internalType": "address",
          "name": "",
          "type": "address"
        }
      ],
      "stateMutability": "view",
      "type": "function",
      "constant": true
    },
    {
      "inputs": [
        {
          "internalType": "address",
          "name": "_oracle",
          "type": "address"
        },
        {
          "internalType": "bytes32",
          "name": "_jobId",
          "type": "bytes32"
        },
        {
          "internalType": "uint256",
          "name": "_payment",
          "type": "uint256"
        }
      ],
      "name": "requestEthereumPrice",
      "outputs": [],
      "stateMutability": "nonpayable",
      "type": "function"
    },
    {
      "inputs": [
        {
          "internalType": "bytes32",
          "name": "_requestId",
          "type": "bytes32"
        },
        {
          "internalType": "uint256",
          "name": "_price",
          "type": "uint256"
        }
      ],
      "name": "fulfill",
      "outputs": [],
      "stateMutability": "nonpayable",
      "type": "function"
    },
    {
      "inputs": [
        {
          "internalType": "bytes32",
          "name": "_requestId",
          "type": "bytes32"
        },
        {
          "internalType": "uint256",
          "name": "_payment",
          "type": "uint256"
        },
        {
          "internalType": "bytes4",
          "name": "_callbackFunctionId",
          "type": "bytes4"
        },
        {
          "internalType": "uint256",
          "name": "_expiration",
          "type": "uint256"
        }
      ],
      "name": "cancelRequest",
      "outputs": [],
      "stateMutability": "nonpayable",
      "type": "function"
    },
    {
      "inputs": [],
      "name": "withdrawLink",
      "outputs": [],
      "stateMutability": "nonpayable",
      "type": "function"
    }
  ],
  "bytecode": "0x6080604052600160045534801561001557600080fd5b506040516115423803806115428339818101604052602081101561003857600080fd5b81019080805190602001909291905050506100588161009f60201b60201c565b33600760006101000a81548173ffffffffffffffffffffffffffffffffffffffff021916908373ffffffffffffffffffffffffffffffffffffffff160217905550506100e3565b80600260006101000a81548173ffffffffffffffffffffffffffffffffffffffff021916908373ffffffffffffffffffffffffffffffffffffffff16021790555050565b611450806100f26000396000f3fe608060405234801561001057600080fd5b50600436106100625760003560e01c806330524614146100675780634357855e146100bf5780638da5cb5b146100f75780638dc654a2146101415780639d1b464a1461014b578063ec65d0f814610169575b600080fd5b6100bd6004803603606081101561007d57600080fd5b81019080803573ffffffffffffffffffffffffffffffffffffffff16906020019092919080359060200190929190803590602001909291905050506101d4565b005b6100f5600480360360408110156100d557600080fd5b810190808035906020019092919080359060200190929190505050610388565b005b6100ff6104af565b604051808273ffffffffffffffffffffffffffffffffffffffff1673ffffffffffffffffffffffffffffffffffffffff16815260200191505060405180910390f35b6101496104d5565b005b610153610729565b6040518082815260200191505060405180910390f35b6101d26004803603608081101561017f57600080fd5b81019080803590602001909291908035906020019092919080357bffffffffffffffffffffffffffffffffffffffffffffffffffffffff191690602001909291908035906020019092919050505061072f565b005b600760009054906101000a900473ffffffffffffffffffffffffffffffffffffffff1673ffffffffffffffffffffffffffffffffffffffff163373ffffffffffffffffffffffffffffffffffffffff161461022e57600080fd5b610236611309565b6102488330634357855e60e01b61079b565b90506102ac6040518060400160405280600381526020017f67657400000000000000000000000000000000000000000000000000000000008152506040518060600160405280603f81526020016113b4603f9139836107cc9092919063ffffffff16565b61032b6040518060400160405280600481526020017f70617468000000000000000000000000000000000000000000000000000000008152506040518060400160405280600381526020017f5553440000000000000000000000000000000000000000000000000000000000815250836107cc9092919063ffffffff16565b6103766040518060400160405280600581526020017f74696d65730000000000000000000000000000000000000000000000000000008152506064836107ff9092919063ffffffff16565b610381848284610832565b5050505050565b816005600082815260200190815260200160002060009054906101000a900473ffffffffffffffffffffffffffffffffffffffff1673ffffffffffffffffffffffffffffffffffffffff163373ffffffffffffffffffffffffffffffffffffffff1614610440576040517f08c379a00000000000000000000000000000000000000000000000000000000081526004018080602001828103825260288152602001806113f36028913960400191505060405180910390fd5b6005600082815260200190815260200160002060006101000a81549073ffffffffffffffffffffffffffffffffffffffff0219169055807f7cc135e0cebb02c3480ae5d74d377283180a2601f8f644edf7987b009316c63a60405160405180910390a281600681905550505050565b600760009054906101000a900473ffffffffffffffffffffffffffffffffffffffff1681565b600760009054906101000a900473ffffffffffffffffffffffffffffffffffffffff1673ffffffffffffffffffffffffffffffffffffffff163373ffffffffffffffffffffffffffffffffffffffff161461052f57600080fd5b6000610539610aea565b90508073ffffffffffffffffffffffffffffffffffffffff1663a9059cbb338373ffffffffffffffffffffffffffffffffffffffff166370a08231306040518263ffffffff1660e01b8152600401808273ffffffffffffffffffffffffffffffffffffffff1673ffffffffffffffffffffffffffffffffffffffff16815260200191505060206040518083038186803b1580156105d557600080fd5b505afa1580156105e9573d6000803e3d6000fd5b505050506040513d60208110156105ff57600080fd5b81019080805190602001909291905050506040518363ffffffff1660e01b8152600401808373ffffffffffffffffffffffffffffffffffffffff1673ffffffffffffffffffffffffffffffffffffffff16815260200182815260200192505050602060405180830381600087803b15801561067957600080fd5b505af115801561068d573d6000803e3d6000fd5b505050506040513d60208110156106a357600080fd5b8101908080519060200190929190505050610726576040517f08c379a00000000000000000000000000000000000000000000000000000000081526004018080602001828103825260128152602001807f556e61626c6520746f207472616e73666572000000000000000000000000000081525060200191505060405180910390fd5b50565b60065481565b600760009054906101000a900473ffffffffffffffffffffffffffffffffffffffff1673ffffffffffffffffffffffffffffffffffffffff163373ffffffffffffffffffffffffffffffffffffffff161461078957600080fd5b61079584848484610b14565b50505050565b6107a3611309565b6107ab611309565b6107c285858584610c77909392919063ffffffff16565b9150509392505050565b6107e3828460800151610d2790919063ffffffff16565b6107fa818460800151610d2790919063ffffffff16565b505050565b610816828460800151610d2790919063ffffffff16565b61082d818460800151610d4c90919063ffffffff16565b505050565b600030600454604051602001808373ffffffffffffffffffffffffffffffffffffffff1673ffffffffffffffffffffffffffffffffffffffff1660601b815260140182815260200192505050604051602081830303815290604052805190602001209050600454836060018181525050836005600083815260200190815260200160002060006101000a81548173ffffffffffffffffffffffffffffffffffffffff021916908373ffffffffffffffffffffffffffffffffffffffff160217905550807fb5e6e01e79f91267dc17b4e6314d5d4d03593d2ceee0fbb452b750bd70ea5af960405160405180910390a2600260009054906101000a900473ffffffffffffffffffffffffffffffffffffffff1673ffffffffffffffffffffffffffffffffffffffff16634000aea0858461096a87610d98565b6040518463ffffffff1660e01b8152600401808473ffffffffffffffffffffffffffffffffffffffff1673ffffffffffffffffffffffffffffffffffffffff16815260200183815260200180602001828103825283818151815260200191508051906020019080838360005b838110156109f15780820151818401526020810190506109d6565b50505050905090810190601f168015610a1e5780820380516001836020036101000a031916815260200191505b50945050505050602060405180830381600087803b158015610a3f57600080fd5b505af1158015610a53573d6000803e3d6000fd5b505050506040513d6020811015610a6957600080fd5b8101908080519060200190929190505050610acf576040517f08c379a00000000000000000000000000000000000000000000000000000000081526004018080602001828103825260238152602001806113916023913960400191505060405180910390fd5b60016004600082825401925050819055508090509392505050565b6000600260009054906101000a900473ffffffffffffffffffffffffffffffffffffffff16905090565b60006005600086815260200190815260200160002060009054906101000a900473ffffffffffffffffffffffffffffffffffffffff1690506005600086815260200190815260200160002060006101000a81549073ffffffffffffffffffffffffffffffffffffffff0219169055847fe1fe3afa0f7f761ff0a8b89086790efd5140d2907ebd5b7ff6bfcb5e075fd4c560405160405180910390a28073ffffffffffffffffffffffffffffffffffffffff16636ee4d553868686866040518563ffffffff1660e01b815260040180858152602001848152602001837bffffffffffffffffffffffffffffffffffffffffffffffffffffffff19167bffffffffffffffffffffffffffffffffffffffffffffffffffffffff19168152602001828152602001945050505050600060405180830381600087803b158015610c5857600080fd5b505af1158015610c6c573d6000803e3d6000fd5b505050505050505050565b610c7f611309565b610c8f8560800151610100610f64565b508385600001818152505082856020019073ffffffffffffffffffffffffffffffffffffffff16908173ffffffffffffffffffffffffffffffffffffffff16815250508185604001907bffffffffffffffffffffffffffffffffffffffffffffffffffffffff191690817bffffffffffffffffffffffffffffffffffffffffffffffffffffffff191681525050849050949350505050565b610d348260038351610fb8565b610d4781836110fd90919063ffffffff16565b505050565b60008112610d6557610d6082600083610fb8565b610d94565b610d93826001837fffffffffffffffffffffffffffffffffffffffffffffffffffffffffffffffff03610fb8565b5b5050565b6060634042994660e01b60008084600001518560200151866040015187606001516001896080015160000151604051602401808973ffffffffffffffffffffffffffffffffffffffff1673ffffffffffffffffffffffffffffffffffffffff1681526020018881526020018781526020018673ffffffffffffffffffffffffffffffffffffffff1673ffffffffffffffffffffffffffffffffffffffff168152602001857bffffffffffffffffffffffffffffffffffffffffffffffffffffffff19167bffffffffffffffffffffffffffffffffffffffffffffffffffffffff1916815260200184815260200183815260200180602001828103825283818151815260200191508051906020019080838360005b83811015610ec7578082015181840152602081019050610eac565b50505050905090810190601f168015610ef45780820380516001836020036101000a031916815260200191505b509950505050505050505050604051602081830303815290604052907bffffffffffffffffffffffffffffffffffffffffffffffffffffffff19166020820180517bffffffffffffffffffffffffffffffffffffffffffffffffffffffff83818316178352505050509050919050565b610f6c611376565b600060208381610f7857fe5b0614610f915760208281610f8857fe5b06602003820191505b81836020018181525050604051808452600081528281016020016040525082905092915050565b60178111610fe557610fdf8160058460ff16901b60ff16178461111f90919063ffffffff16565b506110f8565b60ff81116110275761100a601860058460ff16901b178461111f90919063ffffffff16565b506110218160018561113f9092919063ffffffff16565b506110f7565b61ffff811161106a5761104d601960058460ff16901b178461111f90919063ffffffff16565b506110648160028561113f9092919063ffffffff16565b506110f6565b63ffffffff81116110af57611092601a60058460ff16901b178461111f90919063ffffffff16565b506110a98160048561113f9092919063ffffffff16565b506110f5565b67ffffffffffffffff81116110f4576110db601b60058460ff16901b178461111f90919063ffffffff16565b506110f28160088561113f9092919063ffffffff16565b505b5b5b5b5b505050565b611105611376565b61111783846000015151848551611161565b905092915050565b611127611376565b611137838460000151518461121a565b905092915050565b611147611376565b611158848560000151518585611268565b90509392505050565b611169611376565b825182111561117757600080fd5b846020015182850111156111a2576111a185600261119b88602001518887016112c9565b026112e5565b5b6000808651805187602083010193508088870111156111c15787860182525b60208701925050505b602084106111ed57805182526020820191506020810190506020840393506111ca565b60006001856020036101000a03905080198251168184511681811785525050879350505050949350505050565b611222611376565b8360200151831061123f5761123e8460028660200151026112e5565b5b835180516020858301018481538186141561125b576001820183525b5050508390509392505050565b611270611376565b8460200151848301111561128e5761128d856002868501026112e5565b5b60006001836101000a03905085518386820101858319825116178152815185880111156112bb5784870182525b505085915050949350505050565b6000818311156112db578290506112df565b8190505b92915050565b6060826000015190506112f88383610f64565b5061130383826110fd565b50505050565b6040518060a0016040528060008019168152602001600073ffffffffffffffffffffffffffffffffffffffff16815260200160007bffffffffffffffffffffffffffffffffffffffffffffffffffffffff1916815260200160008152602001611370611376565b81525090565b60405180604001604052806060815260200160008152509056fe756e61626c6520746f207472616e73666572416e6443616c6c20746f206f7261636c6568747470733a2f2f6d696e2d6170692e63727970746f636f6d706172652e636f6d2f646174612f70726963653f6673796d3d455448267473796d733d555344536f75726365206d75737420626520746865206f7261636c65206f66207468652072657175657374a2646970667358221220d4fc8c6a86994116a80cd3ef32c00598de11287f47e2af24db2d8282a312265264736f6c63430006060033",
  "immutableReferences": {},
  "source": "pragma solidity ^0.6.0;\n\nimport \"@chainlink/contracts/src/v0.6/ChainlinkClient.sol\";\n\n// MyContract inherits the ChainlinkClient contract to gain the\n// functionality of creating Chainlink requests\ncontract ChainlinkExample is ChainlinkClient {\n  // Stores the answer from the Chainlink oracle\n  uint256 public currentPrice;\n  address public owner;\n\n  constructor(address _address) public {\n    // Set the address for the LINK token for the network\n    setChainlinkToken(_address);\n    owner = msg.sender;\n  }\n\n  // Creates a Chainlink request with the uint256 multiplier job\n  function requestEthereumPrice(address _oracle, bytes32 _jobId, uint256 _payment)\n    public\n    onlyOwner\n  {\n    // newRequest takes a JobID, a callback address, and callback function as input\n    Chainlink.Request memory req = buildChainlinkRequest(_jobId, address(this), this.fulfill.selector);\n    // Adds a URL with the key \"get\" to the request parameters\n    req.add(\"get\", \"https://min-api.cryptocompare.com/data/price?fsym=ETH&tsyms=USD\");\n    // Uses input param (dot-delimited string) as the \"path\" in the request parameters\n    req.add(\"path\", \"USD\");\n    // Adds an integer with the key \"times\" to the request parameters\n    req.addInt(\"times\", 100);\n    // Sends the request with the amount of payment specified to the oracle\n    sendChainlinkRequestTo(_oracle, req, _payment);\n  }\n\n  // fulfill receives a uint256 data type\n  function fulfill(bytes32 _requestId, uint256 _price)\n    public\n    // Use recordChainlinkFulfillment to ensure only the requesting oracle can fulfill\n    recordChainlinkFulfillment(_requestId)\n  {\n    currentPrice = _price;\n  }\n\n  // cancelRequest allows the owner to cancel an unfulfilled request\n  function cancelRequest(\n    bytes32 _requestId,\n    uint256 _payment,\n    bytes4 _callbackFunctionId,\n    uint256 _expiration\n  )\n    public\n    onlyOwner\n  {\n    cancelChainlinkRequest(_requestId, _payment, _callbackFunctionId, _expiration);\n  }\n\n\n  // withdrawLink allows the owner to withdraw any extra LINK on the contract\n  function withdrawLink()\n    public\n    onlyOwner\n  {\n    LinkTokenInterface link = LinkTokenInterface(chainlinkTokenAddress());\n    require(link.transfer(msg.sender, link.balanceOf(address(this))), \"Unable to transfer\");\n  }\n\n  modifier onlyOwner() {\n    require(msg.sender == owner);\n    _;\n  }\n}\n",
  "sourcePath": "/home/conflux/Documents/chainlink-integration/chainlinkContractDeploy/contracts/ChainlinkExample.sol",
  "compiler": {
    "name": "solc",
    "version": "0.6.6+commit.6c089d02.Emscripten.clang"
  },
  "schemaVersion": "3.2.0",
  "updatedAt": "2020-09-24T21:40:31.231Z",
  "networkType": "conflux",
  "devdoc": {
    "methods": {}
  },
  "userdoc": {
    "methods": {}
  }
}